{
  "contractName": "CryptoTunes",
  "abi": [
    {
      "inputs": [],
      "stateMutability": "nonpayable",
      "type": "constructor"
    },
    {
      "anonymous": false,
      "inputs": [
        {
          "indexed": true,
          "internalType": "address",
          "name": "previousOwner",
          "type": "address"
        },
        {
          "indexed": true,
          "internalType": "address",
          "name": "newOwner",
          "type": "address"
        }
      ],
      "name": "OwnershipTransferred",
      "type": "event"
    },
    {
      "inputs": [],
      "name": "owner",
      "outputs": [
        {
          "internalType": "address",
          "name": "",
          "type": "address"
        }
      ],
      "stateMutability": "view",
      "type": "function",
      "constant": true
    },
    {
      "inputs": [],
      "name": "renounceOwnership",
      "outputs": [],
      "stateMutability": "nonpayable",
      "type": "function"
    },
    {
      "inputs": [
        {
          "internalType": "address",
          "name": "newOwner",
          "type": "address"
        }
      ],
      "name": "transferOwnership",
      "outputs": [],
      "stateMutability": "nonpayable",
      "type": "function"
    },
    {
      "inputs": [
        {
          "internalType": "uint256",
          "name": "_id",
          "type": "uint256"
        }
      ],
      "name": "getTune",
      "outputs": [
        {
          "internalType": "uint256",
          "name": "",
          "type": "uint256"
        },
        {
          "internalType": "uint256",
          "name": "",
          "type": "uint256"
        },
        {
          "internalType": "uint256",
          "name": "",
          "type": "uint256"
        },
        {
          "internalType": "uint256",
          "name": "",
          "type": "uint256"
        },
        {
          "internalType": "uint256",
          "name": "",
          "type": "uint256"
        },
        {
          "internalType": "uint256",
          "name": "",
          "type": "uint256"
        },
        {
          "internalType": "uint256",
          "name": "",
          "type": "uint256"
        },
        {
          "internalType": "uint256",
          "name": "",
          "type": "uint256"
        },
        {
          "internalType": "address",
          "name": "",
          "type": "address"
        },
        {
          "internalType": "uint256",
          "name": "",
          "type": "uint256"
        }
      ],
      "stateMutability": "view",
      "type": "function",
      "constant": true
    },
    {
      "inputs": [],
      "name": "getTunesLength",
      "outputs": [
        {
          "internalType": "uint256",
          "name": "",
          "type": "uint256"
        }
      ],
      "stateMutability": "view",
      "type": "function",
      "constant": true
    },
    {
      "inputs": [
        {
          "internalType": "uint256",
          "name": "_t1",
          "type": "uint256"
        },
        {
          "internalType": "uint256",
          "name": "_t2",
          "type": "uint256"
        },
        {
          "internalType": "uint256",
          "name": "_t3",
          "type": "uint256"
        },
        {
          "internalType": "uint256",
          "name": "_t4",
          "type": "uint256"
        },
        {
          "internalType": "uint256",
          "name": "_t5",
          "type": "uint256"
        },
        {
          "internalType": "uint256",
          "name": "_t6",
          "type": "uint256"
        },
        {
          "internalType": "uint256",
          "name": "_t7",
          "type": "uint256"
        },
        {
          "internalType": "uint256",
          "name": "_t8",
          "type": "uint256"
        }
      ],
      "name": "publishTune",
      "outputs": [
        {
          "internalType": "uint256",
          "name": "",
          "type": "uint256"
        }
      ],
      "stateMutability": "payable",
      "type": "function",
      "payable": true
    },
    {
      "inputs": [
        {
          "internalType": "address",
          "name": "_artist",
          "type": "address"
        }
      ],
      "name": "getArtistTunes",
      "outputs": [
        {
          "internalType": "uint256[]",
          "name": "",
          "type": "uint256[]"
        }
      ],
      "stateMutability": "view",
      "type": "function",
      "constant": true
    },
    {
      "inputs": [],
      "name": "getMyFavorites",
      "outputs": [
        {
          "internalType": "uint256[]",
          "name": "",
          "type": "uint256[]"
        }
      ],
      "stateMutability": "view",
      "type": "function",
      "constant": true
    },
    {
      "inputs": [
        {
          "internalType": "uint256",
          "name": "_id",
          "type": "uint256"
        }
      ],
      "name": "favorite",
      "outputs": [],
      "stateMutability": "payable",
      "type": "function",
      "payable": true
    },
    {
      "inputs": [],
      "name": "withdraw",
      "outputs": [],
      "stateMutability": "nonpayable",
      "type": "function"
    },
    {
      "inputs": [
        {
          "internalType": "uint256",
          "name": "_fee",
          "type": "uint256"
        }
      ],
      "name": "setFavoriteFee",
      "outputs": [],
      "stateMutability": "nonpayable",
      "type": "function"
    }
  ],
  "bytecode": "0x608060405266038d7ea4c680006004553480156200001c57600080fd5b506200003d620000316200032960201b60201c565b6200033160201b60201c565b6001808190555060007f26e568783d360cc2d21f0ea4bc8667ef76818468c6551ea4507b784e1ad5262060001c905060007fa061ef99162a3257e7039e1dd44b51972ecdd7fc4ad09057de6492c352b6a04a60001c905060007f9a698cdc22fd0cd8cf3f45b6e92da1e4578903b811cae08f9470d6f995dfd4fc60001c905060007fc539072beafb2eff0dfcb7ef6375c3acc7ae39b6379820e467b81c575981786c60001c905060007f7c4c9cdb4146b03e585d36f895b53e4fd204f88d3d03dfe1cb16c85eb9c886f660001c905060007f3456690e36d3d1bdd3e067b2d1e55081fcc7ffbd6effd6eadda2946b86e5515b60001c905060007f667eacc0d288e7a3e97d3e3755c9e96dd7e1c643b99e0b5e4ea630edb06f3b3760001c905060007f60edd2e916af11217a206eed667ac11e018e553926e7bee80c261ba5d9be15fa60001c905060076040518061010001604052808a8152602001898152602001888152602001878152602001868152602001858152602001848152602001838152509080600181540180825580915050600190039060005260206000209060080201600090919091909150600082015181600001556020820151816001015560408201518160020155606082015181600301556080820151816004015560a0820151816005015560c0820151816006015560e082015181600701555050600060016007805490506200025191906200042e565b9050620002636200032960201b60201c565b6005600083815260200190815260200160002060006101000a81548173ffffffffffffffffffffffffffffffffffffffff021916908373ffffffffffffffffffffffffffffffffffffffff16021790555060066000620002c86200032960201b60201c565b73ffffffffffffffffffffffffffffffffffffffff1673ffffffffffffffffffffffffffffffffffffffff1681526020019081526020016000206000815480929190620003159062000469565b9190505550505050505050505050620004b7565b600033905090565b60008060009054906101000a900473ffffffffffffffffffffffffffffffffffffffff169050816000806101000a81548173ffffffffffffffffffffffffffffffffffffffff021916908373ffffffffffffffffffffffffffffffffffffffff1602179055508173ffffffffffffffffffffffffffffffffffffffff168173ffffffffffffffffffffffffffffffffffffffff167f8be0079c531659141344cd1fd0a4f28419497f9722a3daafe3b4186f6b6457e060405160405180910390a35050565b6000819050919050565b7f4e487b7100000000000000000000000000000000000000000000000000000000600052601160045260246000fd5b60006200043b82620003f5565b91506200044883620003f5565b9250828210156200045e576200045d620003ff565b5b828203905092915050565b60006200047682620003f5565b91507fffffffffffffffffffffffffffffffffffffffffffffffffffffffffffffffff821415620004ac57620004ab620003ff565b5b600182019050919050565b61143880620004c76000396000f3fe60806040526004361061009c5760003560e01c8063bd4b294011610064578063bd4b294014610170578063c13257841461019b578063da7d4658146101c6578063e13db0b8146101e2578063e94b936e1461020b578063f2fde38b146102485761009c565b80633ccfd60b146100a157806357e17886146100b8578063715018a6146100fe57806386b58a45146101155780638da5cb5b14610145575b600080fd5b3480156100ad57600080fd5b506100b6610271565b005b3480156100c457600080fd5b506100df60048036038101906100da9190610e3f565b61033d565b6040516100f59a99989796959493929190610ebc565b60405180910390f35b34801561010a57600080fd5b50610113610422565b005b61012f600480360381019061012a9190610f58565b6104aa565b60405161013c919061100e565b60405180910390f35b34801561015157600080fd5b5061015a6106a1565b6040516101679190611029565b60405180910390f35b34801561017c57600080fd5b506101856106ca565b6040516101929190611102565b60405180910390f35b3480156101a757600080fd5b506101b0610766565b6040516101bd919061100e565b60405180910390f35b6101e060048036038101906101db9190610e3f565b610773565b005b3480156101ee57600080fd5b5061020960048036038101906102049190610e3f565b610a67565b005b34801561021757600080fd5b50610232600480360381019061022d9190611150565b610aed565b60405161023f9190611102565b60405180910390f35b34801561025457600080fd5b5061026f600480360381019061026a9190611150565b610c40565b005b610279610d38565b73ffffffffffffffffffffffffffffffffffffffff166102976106a1565b73ffffffffffffffffffffffffffffffffffffffff16146102ed576040517f08c379a00000000000000000000000000000000000000000000000000000000081526004016102e4906111da565b60405180910390fd5b6102f56106a1565b73ffffffffffffffffffffffffffffffffffffffff166108fc479081150290604051600060405180830381858888f1935050505015801561033a573d6000803e3d6000fd5b50565b600080600080600080600080600080600060078c81548110610362576103616111fa565b5b9060005260206000209060080201905060008160000154141561038457600080fd5b6000600560008e815260200190815260200160002060009054906101000a900473ffffffffffffffffffffffffffffffffffffffff1690506000600360008f81526020019081526020016000205490508260000154836001015484600201548560030154866004015487600501548860060154896007015489899c509c509c509c509c509c509c509c509c509c505050509193959799509193959799565b61042a610d38565b73ffffffffffffffffffffffffffffffffffffffff166104486106a1565b73ffffffffffffffffffffffffffffffffffffffff161461049e576040517f08c379a0000000000000000000000000000000000000000000000000000000008152600401610495906111da565b60405180910390fd5b6104a86000610d40565b565b6000600260015414156104f2576040517f08c379a00000000000000000000000000000000000000000000000000000000081526004016104e990611275565b60405180910390fd5b6002600181905550600089141561050857600080fd5b60076040518061010001604052808b81526020018a8152602001898152602001888152602001878152602001868152602001858152602001848152509080600181540180825580915050600190039060005260206000209060080201600090919091909150600082015181600001556020820151816001015560408201518160020155606082015181600301556080820151816004015560a0820151816005015560c0820151816006015560e082015181600701555050600060016007805490506105d391906112c4565b90506105dd610d38565b6005600083815260200190815260200160002060006101000a81548173ffffffffffffffffffffffffffffffffffffffff021916908373ffffffffffffffffffffffffffffffffffffffff1602179055506006600061063a610d38565b73ffffffffffffffffffffffffffffffffffffffff1673ffffffffffffffffffffffffffffffffffffffff1681526020019081526020016000206000815480929190610685906112f8565b9190505550809150506001808190555098975050505050505050565b60008060009054906101000a900473ffffffffffffffffffffffffffffffffffffffff16905090565b6060600260006106d8610d38565b73ffffffffffffffffffffffffffffffffffffffff1673ffffffffffffffffffffffffffffffffffffffff16815260200190815260200160002080548060200260200160405190810160405280929190818152602001828054801561075c57602002820191906000526020600020905b815481526020019060010190808311610748575b5050505050905090565b6000600780549050905090565b600260015414156107b9576040517f08c379a00000000000000000000000000000000000000000000000000000000081526004016107b090611275565b60405180910390fd5b6002600181905550600073ffffffffffffffffffffffffffffffffffffffff166005600083815260200190815260200160002060009054906101000a900473ffffffffffffffffffffffffffffffffffffffff1673ffffffffffffffffffffffffffffffffffffffff16141561082e57600080fd5b600060078281548110610844576108436111fa565b5b9060005260206000209060080201905060008160000154141561086657600080fd5b60045434101561087557600080fd5b60005b60026000610884610d38565b73ffffffffffffffffffffffffffffffffffffffff1673ffffffffffffffffffffffffffffffffffffffff1681526020019081526020016000208054905081101561094b57600260006108d5610d38565b73ffffffffffffffffffffffffffffffffffffffff1673ffffffffffffffffffffffffffffffffffffffff1681526020019081526020016000208181548110610921576109206111fa565b5b906000526020600020015483141561093857600080fd5b8080610943906112f8565b915050610878565b50600360008381526020019081526020016000206000815480929190610970906112f8565b91905055506005600083815260200190815260200160002060009054906101000a900473ffffffffffffffffffffffffffffffffffffffff1673ffffffffffffffffffffffffffffffffffffffff166108fc349081150290604051600060405180830381858888f193505050501580156109ee573d6000803e3d6000fd5b50600260006109fb610d38565b73ffffffffffffffffffffffffffffffffffffffff1673ffffffffffffffffffffffffffffffffffffffff168152602001908152602001600020829080600181540180825580915050600190039060005260206000200160009091909190915055506001808190555050565b610a6f610d38565b73ffffffffffffffffffffffffffffffffffffffff16610a8d6106a1565b73ffffffffffffffffffffffffffffffffffffffff1614610ae3576040517f08c379a0000000000000000000000000000000000000000000000000000000008152600401610ada906111da565b60405180910390fd5b8060048190555050565b60606000600660008473ffffffffffffffffffffffffffffffffffffffff1673ffffffffffffffffffffffffffffffffffffffff1681526020019081526020016000205467ffffffffffffffff811115610b4a57610b49611341565b5b604051908082528060200260200182016040528015610b785781602001602082028036833780820191505090505b5090506000805b600780549050811015610c35578473ffffffffffffffffffffffffffffffffffffffff166005600083815260200190815260200160002060009054906101000a900473ffffffffffffffffffffffffffffffffffffffff1673ffffffffffffffffffffffffffffffffffffffff161415610c225780838381518110610c0757610c066111fa565b5b6020026020010181815250508180610c1e906112f8565b9250505b8080610c2d906112f8565b915050610b7f565b508192505050919050565b610c48610d38565b73ffffffffffffffffffffffffffffffffffffffff16610c666106a1565b73ffffffffffffffffffffffffffffffffffffffff1614610cbc576040517f08c379a0000000000000000000000000000000000000000000000000000000008152600401610cb3906111da565b60405180910390fd5b600073ffffffffffffffffffffffffffffffffffffffff168173ffffffffffffffffffffffffffffffffffffffff161415610d2c576040517f08c379a0000000000000000000000000000000000000000000000000000000008152600401610d23906113e2565b60405180910390fd5b610d3581610d40565b50565b600033905090565b60008060009054906101000a900473ffffffffffffffffffffffffffffffffffffffff169050816000806101000a81548173ffffffffffffffffffffffffffffffffffffffff021916908373ffffffffffffffffffffffffffffffffffffffff1602179055508173ffffffffffffffffffffffffffffffffffffffff168173ffffffffffffffffffffffffffffffffffffffff167f8be0079c531659141344cd1fd0a4f28419497f9722a3daafe3b4186f6b6457e060405160405180910390a35050565b600080fd5b6000819050919050565b610e1c81610e09565b8114610e2757600080fd5b50565b600081359050610e3981610e13565b92915050565b600060208284031215610e5557610e54610e04565b5b6000610e6384828501610e2a565b91505092915050565b610e7581610e09565b82525050565b600073ffffffffffffffffffffffffffffffffffffffff82169050919050565b6000610ea682610e7b565b9050919050565b610eb681610e9b565b82525050565b600061014082019050610ed2600083018d610e6c565b610edf602083018c610e6c565b610eec604083018b610e6c565b610ef9606083018a610e6c565b610f066080830189610e6c565b610f1360a0830188610e6c565b610f2060c0830187610e6c565b610f2d60e0830186610e6c565b610f3b610100830185610ead565b610f49610120830184610e6c565b9b9a5050505050505050505050565b600080600080600080600080610100898b031215610f7957610f78610e04565b5b6000610f878b828c01610e2a565b9850506020610f988b828c01610e2a565b9750506040610fa98b828c01610e2a565b9650506060610fba8b828c01610e2a565b9550506080610fcb8b828c01610e2a565b94505060a0610fdc8b828c01610e2a565b93505060c0610fed8b828c01610e2a565b92505060e0610ffe8b828c01610e2a565b9150509295985092959890939650565b60006020820190506110236000830184610e6c565b92915050565b600060208201905061103e6000830184610ead565b92915050565b600081519050919050565b600082825260208201905092915050565b6000819050602082019050919050565b61107981610e09565b82525050565b600061108b8383611070565b60208301905092915050565b6000602082019050919050565b60006110af82611044565b6110b9818561104f565b93506110c483611060565b8060005b838110156110f55781516110dc888261107f565b97506110e783611097565b9250506001810190506110c8565b5085935050505092915050565b6000602082019050818103600083015261111c81846110a4565b905092915050565b61112d81610e9b565b811461113857600080fd5b50565b60008135905061114a81611124565b92915050565b60006020828403121561116657611165610e04565b5b60006111748482850161113b565b91505092915050565b600082825260208201905092915050565b7f4f776e61626c653a2063616c6c6572206973206e6f7420746865206f776e6572600082015250565b60006111c460208361117d565b91506111cf8261118e565b602082019050919050565b600060208201905081810360008301526111f3816111b7565b9050919050565b7f4e487b7100000000000000000000000000000000000000000000000000000000600052603260045260246000fd5b7f5265656e7472616e637947756172643a207265656e7472616e742063616c6c00600082015250565b600061125f601f8361117d565b915061126a82611229565b602082019050919050565b6000602082019050818103600083015261128e81611252565b9050919050565b7f4e487b7100000000000000000000000000000000000000000000000000000000600052601160045260246000fd5b60006112cf82610e09565b91506112da83610e09565b9250828210156112ed576112ec611295565b5b828203905092915050565b600061130382610e09565b91507fffffffffffffffffffffffffffffffffffffffffffffffffffffffffffffffff82141561133657611335611295565b5b600182019050919050565b7f4e487b7100000000000000000000000000000000000000000000000000000000600052604160045260246000fd5b7f4f776e61626c653a206e6577206f776e657220697320746865207a65726f206160008201527f6464726573730000000000000000000000000000000000000000000000000000602082015250565b60006113cc60268361117d565b91506113d782611370565b604082019050919050565b600060208201905081810360008301526113fb816113bf565b905091905056fea2646970667358221220a4d6f5e5cf4250e3ee746776f9ff28651b252df2a8895c5095cfaf0f2af3e45364736f6c63430008090033",
  "immutableReferences": {},
  "source": "// SPDX-License-Identifier: MIT\npragma solidity >=0.4.22 <0.9.0;\n\nimport '@openzeppelin/contracts/access/Ownable.sol';\nimport '@openzeppelin/contracts/security/ReentrancyGuard.sol';\n\ncontract CryptoTunes is Ownable, ReentrancyGuard {\n  struct Tune {\n    uint t1;\n    uint t2;\n    uint t3;\n    uint t4;\n    uint t5;\n    uint t6;\n    uint t7;\n    uint t8;\n  }\n\n  mapping(address => uint[]) myFavorites;\n  mapping(uint => uint) favoriteCount;\n  uint favoriteFee = 0.001 ether;\n  mapping(uint => address) tuneOwner;\n  mapping(address => uint) artistTuneCount;\n  Tune[] tunes;\n\n  constructor() {\n    uint _t1 = uint(keccak256(\"Genesis Tune Track 1\"));\n    uint _t2 = uint(keccak256(\"Genesis Tune Track 2\"));\n    uint _t3 = uint(keccak256(\"Genesis Tune Track 3\"));\n    uint _t4 = uint(keccak256(\"Genesis Tune Track 4\"));\n    uint _t5 = uint(keccak256(\"Genesis Tune Track 5\"));\n    uint _t6 = uint(keccak256(\"Genesis Tune Track 6\"));\n    uint _t7 = uint(keccak256(\"Genesis Tune Track 7\"));\n    uint _t8 = uint(keccak256(\"Genesis Tune Track 8\"));\n\n    tunes.push(Tune(_t1, _t2, _t3, _t4, _t5, _t6, _t7, _t8));\n    uint tuneId = tunes.length - 1;\n    tuneOwner[tuneId] = _msgSender();\n    artistTuneCount[_msgSender()]++;\n  }\n\n  function getTune(uint _id) public view returns(\n    uint, uint, uint, uint,\n    uint, uint, uint, uint,\n    address, uint) {\n    Tune storage tune = tunes[_id];\n    require(tune.t1 != 0);\n    address thisTuneOwner = tuneOwner[_id];\n    uint favCount = favoriteCount[_id];\n    return (tune.t1, tune.t2, tune.t3, tune.t4,\n    tune.t5, tune.t6, tune.t7, tune.t8,\n    thisTuneOwner, favCount);\n  }\n\n  function getTunesLength() public view returns (uint) {\n    return tunes.length;\n  }\n\n  function publishTune(uint _t1, uint _t2, uint _t3, uint _t4,\n    uint _t5, uint _t6, uint _t7, uint _t8) nonReentrant external payable returns (uint) {\n    require(_t1 != 0);\n    tunes.push(Tune(_t1, _t2, _t3, _t4, _t5, _t6, _t7, _t8));\n    uint tuneId = tunes.length - 1;\n    tuneOwner[tuneId] = _msgSender();\n    artistTuneCount[_msgSender()]++;\n    return tuneId;\n  }\n\n  function getArtistTunes(address _artist) public view returns(uint[] memory) {\n    uint[] memory theseTunes = new uint[](artistTuneCount[_artist]);\n    uint inc = 0;\n    for (uint i = 0; i < tunes.length; i++) {\n      if (tuneOwner[i] == _artist) {\n        theseTunes[inc] = i;\n        inc++;\n      }\n    }\n    return theseTunes;\n  }\n\n  function getMyFavorites() public view returns(uint[] memory) {\n    return myFavorites[_msgSender()];\n  }\n\n  function favorite(uint _id) nonReentrant external payable {\n    require(tuneOwner[_id] != address(0));\n    Tune storage tune = tunes[_id];\n    require(tune.t1 != 0);\n    require(msg.value >= favoriteFee);\n    for (uint i = 0; i < myFavorites[_msgSender()].length; i++) {\n      require(_id != myFavorites[_msgSender()][i]);\n    }\n    favoriteCount[_id]++;\n    payable(tuneOwner[_id]).transfer(msg.value);\n    myFavorites[_msgSender()].push(_id);\n  }\n\n  function withdraw() external onlyOwner {\n    payable(owner()).transfer(address(this).balance);\n  }\n\n  function setFavoriteFee(uint _fee) external onlyOwner {\n    favoriteFee = _fee;\n  }\n}\n",
  "sourcePath": "/Users/obaggins/cryptotunes-new/contracts/CryptoTunes.sol",
  "compiler": {
    "name": "solc",
    "version": "0.8.9+commit.e5eed63a.Emscripten.clang"
  },
  "schemaVersion": "3.4.3",
  "updatedAt": "2021-10-26T15:48:42.730Z",
  "networkType": "ethereum",
  "devdoc": {
    "kind": "dev",
    "methods": {
      "owner()": {
        "details": "Returns the address of the current owner."
      },
      "renounceOwnership()": {
        "details": "Leaves the contract without owner. It will not be possible to call `onlyOwner` functions anymore. Can only be called by the current owner. NOTE: Renouncing ownership will leave the contract without an owner, thereby removing any functionality that is only available to the owner."
      },
      "transferOwnership(address)": {
        "details": "Transfers ownership of the contract to a new account (`newOwner`). Can only be called by the current owner."
      }
    },
    "version": 1
  },
  "userdoc": {
    "kind": "user",
    "methods": {},
    "version": 1
  }
}