{
  "contractName": "CryptoTracks",
  "abi": [
    {
      "inputs": [],
      "stateMutability": "nonpayable",
      "type": "constructor"
    },
    {
      "anonymous": false,
      "inputs": [
        {
          "indexed": true,
          "internalType": "address",
          "name": "previousOwner",
          "type": "address"
        },
        {
          "indexed": true,
          "internalType": "address",
          "name": "newOwner",
          "type": "address"
        }
      ],
      "name": "OwnershipTransferred",
      "type": "event"
    },
    {
      "inputs": [],
      "name": "owner",
      "outputs": [
        {
          "internalType": "address",
          "name": "",
          "type": "address"
        }
      ],
      "stateMutability": "view",
      "type": "function"
    },
    {
      "inputs": [],
      "name": "renounceOwnership",
      "outputs": [],
      "stateMutability": "nonpayable",
      "type": "function"
    },
    {
      "inputs": [
        {
          "internalType": "address",
          "name": "newOwner",
          "type": "address"
        }
      ],
      "name": "transferOwnership",
      "outputs": [],
      "stateMutability": "nonpayable",
      "type": "function"
    },
    {
      "inputs": [
        {
          "internalType": "uint256",
          "name": "_id",
          "type": "uint256"
        }
      ],
      "name": "getTune",
      "outputs": [
        {
          "internalType": "uint256",
          "name": "",
          "type": "uint256"
        },
        {
          "internalType": "uint256",
          "name": "",
          "type": "uint256"
        },
        {
          "internalType": "uint256",
          "name": "",
          "type": "uint256"
        },
        {
          "internalType": "uint256",
          "name": "",
          "type": "uint256"
        },
        {
          "internalType": "uint256",
          "name": "",
          "type": "uint256"
        },
        {
          "internalType": "uint256",
          "name": "",
          "type": "uint256"
        },
        {
          "internalType": "uint256",
          "name": "",
          "type": "uint256"
        },
        {
          "internalType": "uint256",
          "name": "",
          "type": "uint256"
        },
        {
          "internalType": "address",
          "name": "",
          "type": "address"
        },
        {
          "internalType": "uint256",
          "name": "",
          "type": "uint256"
        }
      ],
      "stateMutability": "view",
      "type": "function"
    },
    {
      "inputs": [],
      "name": "getTunesLength",
      "outputs": [
        {
          "internalType": "uint256",
          "name": "",
          "type": "uint256"
        }
      ],
      "stateMutability": "view",
      "type": "function"
    },
    {
      "inputs": [
        {
          "internalType": "uint256",
          "name": "_t1",
          "type": "uint256"
        },
        {
          "internalType": "uint256",
          "name": "_t2",
          "type": "uint256"
        },
        {
          "internalType": "uint256",
          "name": "_t3",
          "type": "uint256"
        },
        {
          "internalType": "uint256",
          "name": "_t4",
          "type": "uint256"
        },
        {
          "internalType": "uint256",
          "name": "_t5",
          "type": "uint256"
        },
        {
          "internalType": "uint256",
          "name": "_t6",
          "type": "uint256"
        },
        {
          "internalType": "uint256",
          "name": "_t7",
          "type": "uint256"
        },
        {
          "internalType": "uint256",
          "name": "_t8",
          "type": "uint256"
        }
      ],
      "name": "publishTune",
      "outputs": [
        {
          "internalType": "uint256",
          "name": "",
          "type": "uint256"
        }
      ],
      "stateMutability": "payable",
      "type": "function"
    },
    {
      "inputs": [
        {
          "internalType": "address",
          "name": "_artist",
          "type": "address"
        }
      ],
      "name": "getArtistTunes",
      "outputs": [
        {
          "internalType": "uint256[]",
          "name": "",
          "type": "uint256[]"
        }
      ],
      "stateMutability": "view",
      "type": "function"
    },
    {
      "inputs": [],
      "name": "getMyFavorites",
      "outputs": [
        {
          "internalType": "uint256[]",
          "name": "",
          "type": "uint256[]"
        }
      ],
      "stateMutability": "view",
      "type": "function"
    },
    {
      "inputs": [
        {
          "internalType": "uint256",
          "name": "_id",
          "type": "uint256"
        }
      ],
      "name": "favorite",
      "outputs": [],
      "stateMutability": "payable",
      "type": "function"
    },
    {
      "inputs": [],
      "name": "withdraw",
      "outputs": [],
      "stateMutability": "nonpayable",
      "type": "function"
    },
    {
      "inputs": [
        {
          "internalType": "uint256",
          "name": "_fee",
          "type": "uint256"
        }
      ],
      "name": "setFavoriteFee",
      "outputs": [],
      "stateMutability": "nonpayable",
      "type": "function"
    }
  ],
  "bytecode": "0x608060405266038d7ea4c680006004553480156200001c57600080fd5b506200004f6200003a620002f7640100000000026401000000009004565b620002ff640100000000026401000000009004565b600180819055506000773d9630b02e0b5e13717d49f28cd33c891e61016cf6edb54090506000773d9630b02e0c439b73d529888016efb84de24b13d252bf2090506000773d9630b02e0b8bf00af7b2a655b17e082e7531a7a73d7da0905060007755b084a1c20ab61661b2a1f79908691e6ea822bda906942890506000780266275675d8a954a7752619cc78932fb759b7c86cd71dd69090506000780266275675d8a9c771d87b2e3c276beea96db04b13d252bf2090506000773d9630b02e0c3820b77662ed9682994990e515e882d290c090506000773d9630b02e0c3820b77661fdc632f5d456376d85b8273e00905060076040518061010001604052808a8152602001898152602001888152602001878152602001868152602001858152602001848152602001838152509080600181540180825580915050600190039060005260206000209060080201600090919091909150600082015181600001556020820151816001015560408201518160020155606082015181600301556080820151816004015560a0820151816005015560c0820151816006015560e082015181600701555050600060016007805490506200020d9190620003fc565b905062000228620002f7640100000000026401000000009004565b6005600083815260200190815260200160002060006101000a81548173ffffffffffffffffffffffffffffffffffffffff021916908373ffffffffffffffffffffffffffffffffffffffff1602179055506006600062000296620002f7640100000000026401000000009004565b73ffffffffffffffffffffffffffffffffffffffff1673ffffffffffffffffffffffffffffffffffffffff1681526020019081526020016000206000815480929190620002e39062000437565b919050555050505050505050505062000485565b600033905090565b60008060009054906101000a900473ffffffffffffffffffffffffffffffffffffffff169050816000806101000a81548173ffffffffffffffffffffffffffffffffffffffff021916908373ffffffffffffffffffffffffffffffffffffffff1602179055508173ffffffffffffffffffffffffffffffffffffffff168173ffffffffffffffffffffffffffffffffffffffff167f8be0079c531659141344cd1fd0a4f28419497f9722a3daafe3b4186f6b6457e060405160405180910390a35050565b6000819050919050565b7f4e487b7100000000000000000000000000000000000000000000000000000000600052601160045260246000fd5b60006200040982620003c3565b91506200041683620003c3565b9250828210156200042c576200042b620003cd565b5b828203905092915050565b60006200044482620003c3565b91507fffffffffffffffffffffffffffffffffffffffffffffffffffffffffffffffff8214156200047a5762000479620003cd565b5b600182019050919050565b61146c80620004956000396000f3fe6080604052600436106100b9576000357c010000000000000000000000000000000000000000000000000000000090048063bd4b294011610081578063bd4b29401461018d578063c1325784146101b8578063da7d4658146101e3578063e13db0b8146101ff578063e94b936e14610228578063f2fde38b14610265576100b9565b80633ccfd60b146100be57806357e17886146100d5578063715018a61461011b57806386b58a45146101325780638da5cb5b14610162575b600080fd5b3480156100ca57600080fd5b506100d361028e565b005b3480156100e157600080fd5b506100fc60048036038101906100f79190610e73565b610371565b6040516101129a99989796959493929190610ef0565b60405180910390f35b34801561012757600080fd5b50610130610456565b005b61014c60048036038101906101479190610f8c565b6104de565b6040516101599190611042565b60405180910390f35b34801561016e57600080fd5b506101776106d5565b604051610184919061105d565b60405180910390f35b34801561019957600080fd5b506101a26106fe565b6040516101af9190611136565b60405180910390f35b3480156101c457600080fd5b506101cd61079a565b6040516101da9190611042565b60405180910390f35b6101fd60048036038101906101f89190610e73565b6107a7565b005b34801561020b57600080fd5b5061022660048036038101906102219190610e73565b610a9b565b005b34801561023457600080fd5b5061024f600480360381019061024a9190611184565b610b21565b60405161025c9190611136565b60405180910390f35b34801561027157600080fd5b5061028c60048036038101906102879190611184565b610c74565b005b610296610d6c565b73ffffffffffffffffffffffffffffffffffffffff166102b46106d5565b73ffffffffffffffffffffffffffffffffffffffff161461030a576040517f08c379a00000000000000000000000000000000000000000000000000000000081526004016103019061120e565b60405180910390fd5b6103126106d5565b73ffffffffffffffffffffffffffffffffffffffff166108fc3073ffffffffffffffffffffffffffffffffffffffff16319081150290604051600060405180830381858888f1935050505015801561036e573d6000803e3d6000fd5b50565b600080600080600080600080600080600060078c815481106103965761039561122e565b5b906000526020600020906008020190506000816000015414156103b857600080fd5b6000600560008e815260200190815260200160002060009054906101000a900473ffffffffffffffffffffffffffffffffffffffff1690506000600360008f81526020019081526020016000205490508260000154836001015484600201548560030154866004015487600501548860060154896007015489899c509c509c509c509c509c509c509c509c509c505050509193959799509193959799565b61045e610d6c565b73ffffffffffffffffffffffffffffffffffffffff1661047c6106d5565b73ffffffffffffffffffffffffffffffffffffffff16146104d2576040517f08c379a00000000000000000000000000000000000000000000000000000000081526004016104c99061120e565b60405180910390fd5b6104dc6000610d74565b565b600060026001541415610526576040517f08c379a000000000000000000000000000000000000000000000000000000000815260040161051d906112a9565b60405180910390fd5b6002600181905550600089141561053c57600080fd5b60076040518061010001604052808b81526020018a8152602001898152602001888152602001878152602001868152602001858152602001848152509080600181540180825580915050600190039060005260206000209060080201600090919091909150600082015181600001556020820151816001015560408201518160020155606082015181600301556080820151816004015560a0820151816005015560c0820151816006015560e0820151816007015550506000600160078054905061060791906112f8565b9050610611610d6c565b6005600083815260200190815260200160002060006101000a81548173ffffffffffffffffffffffffffffffffffffffff021916908373ffffffffffffffffffffffffffffffffffffffff1602179055506006600061066e610d6c565b73ffffffffffffffffffffffffffffffffffffffff1673ffffffffffffffffffffffffffffffffffffffff16815260200190815260200160002060008154809291906106b99061132c565b9190505550809150506001808190555098975050505050505050565b60008060009054906101000a900473ffffffffffffffffffffffffffffffffffffffff16905090565b60606002600061070c610d6c565b73ffffffffffffffffffffffffffffffffffffffff1673ffffffffffffffffffffffffffffffffffffffff16815260200190815260200160002080548060200260200160405190810160405280929190818152602001828054801561079057602002820191906000526020600020905b81548152602001906001019080831161077c575b5050505050905090565b6000600780549050905090565b600260015414156107ed576040517f08c379a00000000000000000000000000000000000000000000000000000000081526004016107e4906112a9565b60405180910390fd5b6002600181905550600073ffffffffffffffffffffffffffffffffffffffff166005600083815260200190815260200160002060009054906101000a900473ffffffffffffffffffffffffffffffffffffffff1673ffffffffffffffffffffffffffffffffffffffff16141561086257600080fd5b6000600782815481106108785761087761122e565b5b9060005260206000209060080201905060008160000154141561089a57600080fd5b6004543410156108a957600080fd5b60005b600260006108b8610d6c565b73ffffffffffffffffffffffffffffffffffffffff1673ffffffffffffffffffffffffffffffffffffffff1681526020019081526020016000208054905081101561097f5760026000610909610d6c565b73ffffffffffffffffffffffffffffffffffffffff1673ffffffffffffffffffffffffffffffffffffffff16815260200190815260200160002081815481106109555761095461122e565b5b906000526020600020015483141561096c57600080fd5b80806109779061132c565b9150506108ac565b506003600083815260200190815260200160002060008154809291906109a49061132c565b91905055506005600083815260200190815260200160002060009054906101000a900473ffffffffffffffffffffffffffffffffffffffff1673ffffffffffffffffffffffffffffffffffffffff166108fc349081150290604051600060405180830381858888f19350505050158015610a22573d6000803e3d6000fd5b5060026000610a2f610d6c565b73ffffffffffffffffffffffffffffffffffffffff1673ffffffffffffffffffffffffffffffffffffffff168152602001908152602001600020829080600181540180825580915050600190039060005260206000200160009091909190915055506001808190555050565b610aa3610d6c565b73ffffffffffffffffffffffffffffffffffffffff16610ac16106d5565b73ffffffffffffffffffffffffffffffffffffffff1614610b17576040517f08c379a0000000000000000000000000000000000000000000000000000000008152600401610b0e9061120e565b60405180910390fd5b8060048190555050565b60606000600660008473ffffffffffffffffffffffffffffffffffffffff1673ffffffffffffffffffffffffffffffffffffffff1681526020019081526020016000205467ffffffffffffffff811115610b7e57610b7d611375565b5b604051908082528060200260200182016040528015610bac5781602001602082028036833780820191505090505b5090506000805b600780549050811015610c69578473ffffffffffffffffffffffffffffffffffffffff166005600083815260200190815260200160002060009054906101000a900473ffffffffffffffffffffffffffffffffffffffff1673ffffffffffffffffffffffffffffffffffffffff161415610c565780838381518110610c3b57610c3a61122e565b5b6020026020010181815250508180610c529061132c565b9250505b8080610c619061132c565b915050610bb3565b508192505050919050565b610c7c610d6c565b73ffffffffffffffffffffffffffffffffffffffff16610c9a6106d5565b73ffffffffffffffffffffffffffffffffffffffff1614610cf0576040517f08c379a0000000000000000000000000000000000000000000000000000000008152600401610ce79061120e565b60405180910390fd5b600073ffffffffffffffffffffffffffffffffffffffff168173ffffffffffffffffffffffffffffffffffffffff161415610d60576040517f08c379a0000000000000000000000000000000000000000000000000000000008152600401610d5790611416565b60405180910390fd5b610d6981610d74565b50565b600033905090565b60008060009054906101000a900473ffffffffffffffffffffffffffffffffffffffff169050816000806101000a81548173ffffffffffffffffffffffffffffffffffffffff021916908373ffffffffffffffffffffffffffffffffffffffff1602179055508173ffffffffffffffffffffffffffffffffffffffff168173ffffffffffffffffffffffffffffffffffffffff167f8be0079c531659141344cd1fd0a4f28419497f9722a3daafe3b4186f6b6457e060405160405180910390a35050565b600080fd5b6000819050919050565b610e5081610e3d565b8114610e5b57600080fd5b50565b600081359050610e6d81610e47565b92915050565b600060208284031215610e8957610e88610e38565b5b6000610e9784828501610e5e565b91505092915050565b610ea981610e3d565b82525050565b600073ffffffffffffffffffffffffffffffffffffffff82169050919050565b6000610eda82610eaf565b9050919050565b610eea81610ecf565b82525050565b600061014082019050610f06600083018d610ea0565b610f13602083018c610ea0565b610f20604083018b610ea0565b610f2d606083018a610ea0565b610f3a6080830189610ea0565b610f4760a0830188610ea0565b610f5460c0830187610ea0565b610f6160e0830186610ea0565b610f6f610100830185610ee1565b610f7d610120830184610ea0565b9b9a5050505050505050505050565b600080600080600080600080610100898b031215610fad57610fac610e38565b5b6000610fbb8b828c01610e5e565b9850506020610fcc8b828c01610e5e565b9750506040610fdd8b828c01610e5e565b9650506060610fee8b828c01610e5e565b9550506080610fff8b828c01610e5e565b94505060a06110108b828c01610e5e565b93505060c06110218b828c01610e5e565b92505060e06110328b828c01610e5e565b9150509295985092959890939650565b60006020820190506110576000830184610ea0565b92915050565b60006020820190506110726000830184610ee1565b92915050565b600081519050919050565b600082825260208201905092915050565b6000819050602082019050919050565b6110ad81610e3d565b82525050565b60006110bf83836110a4565b60208301905092915050565b6000602082019050919050565b60006110e382611078565b6110ed8185611083565b93506110f883611094565b8060005b8381101561112957815161111088826110b3565b975061111b836110cb565b9250506001810190506110fc565b5085935050505092915050565b6000602082019050818103600083015261115081846110d8565b905092915050565b61116181610ecf565b811461116c57600080fd5b50565b60008135905061117e81611158565b92915050565b60006020828403121561119a57611199610e38565b5b60006111a88482850161116f565b91505092915050565b600082825260208201905092915050565b7f4f776e61626c653a2063616c6c6572206973206e6f7420746865206f776e6572600082015250565b60006111f86020836111b1565b9150611203826111c2565b602082019050919050565b60006020820190508181036000830152611227816111eb565b9050919050565b7f4e487b7100000000000000000000000000000000000000000000000000000000600052603260045260246000fd5b7f5265656e7472616e637947756172643a207265656e7472616e742063616c6c00600082015250565b6000611293601f836111b1565b915061129e8261125d565b602082019050919050565b600060208201905081810360008301526112c281611286565b9050919050565b7f4e487b7100000000000000000000000000000000000000000000000000000000600052601160045260246000fd5b600061130382610e3d565b915061130e83610e3d565b925082821015611321576113206112c9565b5b828203905092915050565b600061133782610e3d565b91507fffffffffffffffffffffffffffffffffffffffffffffffffffffffffffffffff82141561136a576113696112c9565b5b600182019050919050565b7f4e487b7100000000000000000000000000000000000000000000000000000000600052604160045260246000fd5b7f4f776e61626c653a206e6577206f776e657220697320746865207a65726f206160008201527f6464726573730000000000000000000000000000000000000000000000000000602082015250565b60006114006026836111b1565b915061140b826113a4565b604082019050919050565b6000602082019050818103600083015261142f816113f3565b905091905056fea26469706673582212208878571f0e642426b4c1efa6db501903e3af61c464d8d6f37e201a3797dbfca364736f6c63430008090033",
  "immutableReferences": {},
  "source": "// SPDX-License-Identifier: MIT\npragma solidity >=0.4.22 <0.9.0;\n\nimport '@openzeppelin/contracts/access/Ownable.sol';\nimport '@openzeppelin/contracts/security/ReentrancyGuard.sol';\n\ncontract CryptoTracks is Ownable, ReentrancyGuard {\n  struct Tune {\n    uint t1;\n    uint t2;\n    uint t3;\n    uint t4;\n    uint t5;\n    uint t6;\n    uint t7;\n    uint t8;\n  }\n\n  mapping(address => uint[]) myFavorites;\n  mapping(uint => uint) favoriteCount;\n  uint favoriteFee = 0.001 ether;\n  mapping(uint => address) tuneOwner;\n  mapping(address => uint) artistTuneCount;\n  Tune[] tunes;\n\n  constructor() {\n    uint _t1 = 1510101010000000005005005005000000000000165165165165000000;\n    uint _t2 = 1510101010000020000000000000020000000180000000000000180000;\n    uint _t3 = 1510101010000004000124000124004000000164000084000084164000;\n    uint _t4 = 2101101010000009000000000000009000000169000000000000169000;\n    uint _t5 = 15059004000000010000330330330010000000170000410410410170000;\n    uint _t6 = 15059004000000020000000000000020000000180000000000000180000;\n    uint _t7 = 1510101010000019000000019019000000000179000000179179000000;\n    uint _t8 = 1510101010000019000000019000000000000179000000179000000000;\n    tunes.push(Tune(_t1, _t2, _t3, _t4, _t5, _t6, _t7, _t8));\n    uint tuneId = tunes.length - 1;\n    tuneOwner[tuneId] = _msgSender();\n    artistTuneCount[_msgSender()]++;\n  }\n\n  function getTune(uint _id) public view returns(\n    uint, uint, uint, uint,\n    uint, uint, uint, uint,\n    address, uint) {\n    Tune storage tune = tunes[_id];\n    require(tune.t1 != 0);\n    address thisTuneOwner = tuneOwner[_id];\n    uint favCount = favoriteCount[_id];\n    return (tune.t1, tune.t2, tune.t3, tune.t4,\n    tune.t5, tune.t6, tune.t7, tune.t8,\n    thisTuneOwner, favCount);\n  }\n\n  function getTunesLength() public view returns (uint) {\n    return tunes.length;\n  }\n\n  function publishTune(uint _t1, uint _t2, uint _t3, uint _t4,\n    uint _t5, uint _t6, uint _t7, uint _t8) nonReentrant external payable returns (uint) {\n    require(_t1 != 0);\n    tunes.push(Tune(_t1, _t2, _t3, _t4, _t5, _t6, _t7, _t8));\n    uint tuneId = tunes.length - 1;\n    tuneOwner[tuneId] = _msgSender();\n    artistTuneCount[_msgSender()]++;\n    return tuneId;\n  }\n\n  function getArtistTunes(address _artist) public view returns(uint[] memory) {\n    uint[] memory theseTunes = new uint[](artistTuneCount[_artist]);\n    uint inc = 0;\n    for (uint i = 0; i < tunes.length; i++) {\n      if (tuneOwner[i] == _artist) {\n        theseTunes[inc] = i;\n        inc++;\n      }\n    }\n    return theseTunes;\n  }\n\n  function getMyFavorites() public view returns(uint[] memory) {\n    return myFavorites[_msgSender()];\n  }\n\n  function favorite(uint _id) nonReentrant external payable {\n    require(tuneOwner[_id] != address(0));\n    Tune storage tune = tunes[_id];\n    require(tune.t1 != 0);\n    require(msg.value >= favoriteFee);\n    for (uint i = 0; i < myFavorites[_msgSender()].length; i++) {\n      require(_id != myFavorites[_msgSender()][i]);\n    }\n    favoriteCount[_id]++;\n    payable(tuneOwner[_id]).transfer(msg.value);\n    myFavorites[_msgSender()].push(_id);\n  }\n\n  function withdraw() external onlyOwner {\n    payable(owner()).transfer(address(this).balance);\n  }\n\n  function setFavoriteFee(uint _fee) external onlyOwner {\n    favoriteFee = _fee;\n  }\n}\n",
  "sourcePath": "/Users/obaggins/cryptotunes-new/contracts/CryptoTracks.sol",
  "compiler": {
    "name": "solc",
    "version": "0.8.9+commit.e5eed63a.Emscripten.clang"
  },
  "schemaVersion": "3.4.3",
  "updatedAt": "2021-12-12T04:24:45.867Z",
  "devdoc": {
    "kind": "dev",
    "methods": {
      "owner()": {
        "details": "Returns the address of the current owner."
      },
      "renounceOwnership()": {
        "details": "Leaves the contract without owner. It will not be possible to call `onlyOwner` functions anymore. Can only be called by the current owner. NOTE: Renouncing ownership will leave the contract without an owner, thereby removing any functionality that is only available to the owner."
      },
      "transferOwnership(address)": {
        "details": "Transfers ownership of the contract to a new account (`newOwner`). Can only be called by the current owner."
      }
    },
    "version": 1
  },
  "userdoc": {
    "kind": "user",
    "methods": {},
    "version": 1
  }
}